{
  "_format": "hh-sol-artifact-1",
  "contractName": "Lotto666",
  "sourceName": "contracts/Lotto.sol",
  "abi": [
    {
      "inputs": [
        {
          "internalType": "address",
          "name": "_usdTokenAddress",
          "type": "address"
        },
        {
          "internalType": "address",
          "name": "_randomGeneratorAddress",
          "type": "address"
        },
        {
          "internalType": "address",
          "name": "_treasuryAddress",
          "type": "address"
        }
      ],
      "stateMutability": "nonpayable",
      "type": "constructor"
    },
    {
      "anonymous": false,
      "inputs": [
        {
          "indexed": true,
          "internalType": "uint256",
          "name": "startTime",
          "type": "uint256"
        },
        {
          "indexed": false,
          "internalType": "uint256",
          "name": "finalNumber",
          "type": "uint256"
        },
        {
          "indexed": false,
          "internalType": "uint256",
          "name": "countWinningTickets",
          "type": "uint256"
        }
      ],
      "name": "LotteryDrawn",
      "type": "event"
    },
    {
      "anonymous": false,
      "inputs": [
        {
          "indexed": true,
          "internalType": "uint256",
          "name": "startTime",
          "type": "uint256"
        }
      ],
      "name": "LotterySet",
      "type": "event"
    },
    {
      "anonymous": false,
      "inputs": [
        {
          "indexed": true,
          "internalType": "address",
          "name": "randomGenerator",
          "type": "address"
        }
      ],
      "name": "NewRandomGenerator",
      "type": "event"
    },
    {
      "anonymous": false,
      "inputs": [
        {
          "indexed": true,
          "internalType": "address",
          "name": "treasury",
          "type": "address"
        }
      ],
      "name": "NewTreasuryAddress",
      "type": "event"
    },
    {
      "anonymous": false,
      "inputs": [
        {
          "indexed": true,
          "internalType": "address",
          "name": "previousOwner",
          "type": "address"
        },
        {
          "indexed": true,
          "internalType": "address",
          "name": "newOwner",
          "type": "address"
        }
      ],
      "name": "OwnershipTransferred",
      "type": "event"
    },
    {
      "anonymous": false,
      "inputs": [
        {
          "indexed": true,
          "internalType": "address",
          "name": "claimer",
          "type": "address"
        },
        {
          "indexed": false,
          "internalType": "uint256",
          "name": "amount",
          "type": "uint256"
        }
      ],
      "name": "TicketsClaim",
      "type": "event"
    },
    {
      "anonymous": false,
      "inputs": [
        {
          "indexed": true,
          "internalType": "address",
          "name": "buyer",
          "type": "address"
        },
        {
          "indexed": false,
          "internalType": "uint256",
          "name": "numberTickets",
          "type": "uint256"
        }
      ],
      "name": "TicketsPurchase",
      "type": "event"
    },
    {
      "inputs": [
        {
          "internalType": "uint256[]",
          "name": "_ticketNumbers",
          "type": "uint256[]"
        }
      ],
      "name": "buyTickets",
      "outputs": [],
      "stateMutability": "nonpayable",
      "type": "function"
    },
    {
      "inputs": [
        {
          "internalType": "uint256[]",
          "name": "_ticketIds",
          "type": "uint256[]"
        }
      ],
      "name": "claimTickets",
      "outputs": [],
      "stateMutability": "nonpayable",
      "type": "function"
    },
    {
      "inputs": [],
      "name": "closeBlockNumber",
      "outputs": [
        {
          "internalType": "uint256",
          "name": "",
          "type": "uint256"
        }
      ],
      "stateMutability": "view",
      "type": "function"
    },
    {
      "inputs": [],
      "name": "closeLottery",
      "outputs": [],
      "stateMutability": "nonpayable",
      "type": "function"
    },
    {
      "inputs": [],
      "name": "currentTicketId",
      "outputs": [
        {
          "internalType": "uint256",
          "name": "",
          "type": "uint256"
        }
      ],
      "stateMutability": "view",
      "type": "function"
    },
    {
      "inputs": [],
      "name": "endRewardTime",
      "outputs": [
        {
          "internalType": "uint256",
          "name": "",
          "type": "uint256"
        }
      ],
      "stateMutability": "view",
      "type": "function"
    },
    {
      "inputs": [],
      "name": "endTime",
      "outputs": [
        {
          "internalType": "uint256",
          "name": "",
          "type": "uint256"
        }
      ],
      "stateMutability": "view",
      "type": "function"
    },
    {
      "inputs": [],
      "name": "finalNumber",
      "outputs": [
        {
          "internalType": "uint256",
          "name": "",
          "type": "uint256"
        }
      ],
      "stateMutability": "view",
      "type": "function"
    },
    {
      "inputs": [
        {
          "internalType": "uint256",
          "name": "randomNumber",
          "type": "uint256"
        }
      ],
      "name": "getRandomTicketNumber",
      "outputs": [
        {
          "internalType": "uint256",
          "name": "",
          "type": "uint256"
        }
      ],
      "stateMutability": "pure",
      "type": "function"
    },
    {
      "inputs": [],
      "name": "jackpotAmount",
      "outputs": [
        {
          "internalType": "uint256",
          "name": "",
          "type": "uint256"
        }
      ],
      "stateMutability": "view",
      "type": "function"
    },
    {
      "inputs": [],
      "name": "lotteryLength",
      "outputs": [
        {
          "internalType": "uint256",
          "name": "",
          "type": "uint256"
        }
      ],
      "stateMutability": "view",
      "type": "function"
    },
    {
      "inputs": [],
      "name": "owner",
      "outputs": [
        {
          "internalType": "address",
          "name": "",
          "type": "address"
        }
      ],
      "stateMutability": "view",
      "type": "function"
    },
    {
      "inputs": [],
      "name": "randomGenerator",
      "outputs": [
        {
          "internalType": "contract IRandomNumberGenerator",
          "name": "",
          "type": "address"
        }
      ],
      "stateMutability": "view",
      "type": "function"
    },
    {
      "inputs": [],
      "name": "renounceOwnership",
      "outputs": [],
      "stateMutability": "nonpayable",
      "type": "function"
    },
    {
      "inputs": [
        {
          "internalType": "uint256",
          "name": "seedHash",
          "type": "uint256"
        }
      ],
      "name": "requestRandomness",
      "outputs": [],
      "stateMutability": "nonpayable",
      "type": "function"
    },
    {
      "inputs": [],
      "name": "requestRandomnessBlockNumber",
      "outputs": [
        {
          "internalType": "uint256",
          "name": "",
          "type": "uint256"
        }
      ],
      "stateMutability": "view",
      "type": "function"
    },
    {
      "inputs": [
        {
          "internalType": "uint256",
          "name": "_startTime",
          "type": "uint256"
        },
        {
          "internalType": "uint256",
          "name": "_endTime",
          "type": "uint256"
        }
      ],
      "name": "resetForNewLottery",
      "outputs": [],
      "stateMutability": "nonpayable",
      "type": "function"
    },
    {
      "inputs": [
        {
          "internalType": "uint256",
          "name": "seed",
          "type": "uint256"
        }
      ],
      "name": "revealRandomness",
      "outputs": [],
      "stateMutability": "nonpayable",
      "type": "function"
    },
    {
      "inputs": [],
      "name": "rewardingLength",
      "outputs": [
        {
          "internalType": "uint256",
          "name": "",
          "type": "uint256"
        }
      ],
      "stateMutability": "view",
      "type": "function"
    },
    {
      "inputs": [
        {
          "internalType": "uint256",
          "name": "",
          "type": "uint256"
        }
      ],
      "name": "rewardsBreakdown",
      "outputs": [
        {
          "internalType": "uint256",
          "name": "",
          "type": "uint256"
        }
      ],
      "stateMutability": "view",
      "type": "function"
    },
    {
      "inputs": [
        {
          "internalType": "uint256",
          "name": "",
          "type": "uint256"
        }
      ],
      "name": "rewardsForBracket",
      "outputs": [
        {
          "internalType": "uint256",
          "name": "",
          "type": "uint256"
        }
      ],
      "stateMutability": "view",
      "type": "function"
    },
    {
      "inputs": [
        {
          "internalType": "uint256",
          "name": "_endRewardTime",
          "type": "uint256"
        }
      ],
      "name": "setEndRewardTime",
      "outputs": [],
      "stateMutability": "nonpayable",
      "type": "function"
    },
    {
      "inputs": [
        {
          "internalType": "uint256",
          "name": "_endTime",
          "type": "uint256"
        }
      ],
      "name": "setEndTime",
      "outputs": [],
      "stateMutability": "nonpayable",
      "type": "function"
    },
    {
      "inputs": [
        {
          "internalType": "address",
          "name": "_randomGeneratorAddress",
          "type": "address"
        }
      ],
      "name": "setRandomGenerator",
      "outputs": [],
      "stateMutability": "nonpayable",
      "type": "function"
    },
    {
      "inputs": [
        {
          "internalType": "uint256[6]",
          "name": "_rewardsBreakdown",
          "type": "uint256[6]"
        }
      ],
      "name": "setRewardsBreakdown",
      "outputs": [],
      "stateMutability": "nonpayable",
      "type": "function"
    },
    {
      "inputs": [
        {
          "internalType": "uint256",
          "name": "_startTime",
          "type": "uint256"
        }
      ],
      "name": "setStartTime",
      "outputs": [],
      "stateMutability": "nonpayable",
      "type": "function"
    },
    {
      "inputs": [
        {
          "internalType": "uint256",
          "name": "_ticketPrice",
          "type": "uint256"
        }
      ],
      "name": "setTicketPrice",
      "outputs": [],
      "stateMutability": "nonpayable",
      "type": "function"
    },
    {
      "inputs": [
        {
          "internalType": "address",
          "name": "_treasuryAddress",
          "type": "address"
        }
      ],
      "name": "setTreasuryAddresses",
      "outputs": [],
      "stateMutability": "nonpayable",
      "type": "function"
    },
    {
      "inputs": [
        {
          "internalType": "uint256",
          "name": "_treasuryFee",
          "type": "uint256"
        }
      ],
      "name": "setTreasuryFee",
      "outputs": [],
      "stateMutability": "nonpayable",
      "type": "function"
    },
    {
      "inputs": [
        {
          "internalType": "address",
          "name": "_usdTokenAddress",
          "type": "address"
        }
      ],
      "name": "setUSDToken",
      "outputs": [],
      "stateMutability": "nonpayable",
      "type": "function"
    },
    {
      "inputs": [],
      "name": "startLottery",
      "outputs": [],
      "stateMutability": "nonpayable",
      "type": "function"
    },
    {
      "inputs": [],
      "name": "startTime",
      "outputs": [
        {
          "internalType": "uint256",
          "name": "",
          "type": "uint256"
        }
      ],
      "stateMutability": "view",
      "type": "function"
    },
    {
      "inputs": [],
      "name": "status",
      "outputs": [
        {
          "internalType": "enum Lotto666.Status",
          "name": "",
          "type": "uint8"
        }
      ],
      "stateMutability": "view",
      "type": "function"
    },
    {
      "inputs": [],
      "name": "ticketPrice",
      "outputs": [
        {
          "internalType": "uint256",
          "name": "",
          "type": "uint256"
        }
      ],
      "stateMutability": "view",
      "type": "function"
    },
    {
      "inputs": [
        {
          "internalType": "address",
          "name": "newOwner",
          "type": "address"
        }
      ],
      "name": "transferOwnership",
      "outputs": [],
      "stateMutability": "nonpayable",
      "type": "function"
    },
    {
      "inputs": [],
      "name": "treasuryAddress",
      "outputs": [
        {
          "internalType": "address",
          "name": "",
          "type": "address"
        }
      ],
      "stateMutability": "view",
      "type": "function"
    },
    {
      "inputs": [],
      "name": "treasuryFee",
      "outputs": [
        {
          "internalType": "uint256",
          "name": "",
          "type": "uint256"
        }
      ],
      "stateMutability": "view",
      "type": "function"
    },
    {
      "inputs": [],
      "name": "usdToken",
      "outputs": [
        {
          "internalType": "contract IERC20",
          "name": "",
          "type": "address"
        }
      ],
      "stateMutability": "view",
      "type": "function"
    },
    {
      "inputs": [
        {
          "internalType": "address",
          "name": "owner",
          "type": "address"
        }
      ],
      "name": "viewClaimableTicketsOfAddress",
      "outputs": [
        {
          "internalType": "uint256[]",
          "name": "",
          "type": "uint256[]"
        }
      ],
      "stateMutability": "view",
      "type": "function"
    },
    {
      "inputs": [],
      "name": "viewMyRewardsAmount",
      "outputs": [
        {
          "internalType": "uint256",
          "name": "",
          "type": "uint256"
        }
      ],
      "stateMutability": "view",
      "type": "function"
    },
    {
      "inputs": [],
      "name": "viewResult",
      "outputs": [
        {
          "internalType": "uint32[]",
          "name": "",
          "type": "uint32[]"
        }
      ],
      "stateMutability": "view",
      "type": "function"
    },
    {
      "inputs": [
        {
          "internalType": "uint256[]",
          "name": "_ticketIds",
          "type": "uint256[]"
        }
      ],
      "name": "viewRewardsAmount",
      "outputs": [
        {
          "internalType": "uint256",
          "name": "",
          "type": "uint256"
        }
      ],
      "stateMutability": "view",
      "type": "function"
    },
    {
      "inputs": [],
      "name": "viewRewardsBreakdown",
      "outputs": [
        {
          "internalType": "uint256[6]",
          "name": "",
          "type": "uint256[6]"
        }
      ],
      "stateMutability": "view",
      "type": "function"
    },
    {
      "inputs": [],
      "name": "viewRewardsForBracket",
      "outputs": [
        {
          "internalType": "uint256[6]",
          "name": "",
          "type": "uint256[6]"
        }
      ],
      "stateMutability": "view",
      "type": "function"
    },
    {
      "inputs": [
        {
          "internalType": "uint256",
          "name": "ticketId",
          "type": "uint256"
        }
      ],
      "name": "viewTicket",
      "outputs": [
        {
          "internalType": "uint32[]",
          "name": "",
          "type": "uint32[]"
        },
        {
          "internalType": "uint32",
          "name": "",
          "type": "uint32"
        },
        {
          "internalType": "address",
          "name": "",
          "type": "address"
        }
      ],
      "stateMutability": "view",
      "type": "function"
    },
    {
      "inputs": [
        {
          "internalType": "uint256",
          "name": "number",
          "type": "uint256"
        }
      ],
      "name": "viewTicketNumber",
      "outputs": [
        {
          "internalType": "uint32[]",
          "name": "",
          "type": "uint32[]"
        }
      ],
      "stateMutability": "pure",
      "type": "function"
    },
    {
      "inputs": [
        {
          "internalType": "address",
          "name": "owner",
          "type": "address"
        }
      ],
      "name": "viewTicketsOfAddress",
      "outputs": [
        {
          "internalType": "uint256[]",
          "name": "",
          "type": "uint256[]"
        }
      ],
      "stateMutability": "view",
      "type": "function"
    }
  ],
  "bytecode": "0x60806040526001600255671bc16d674ec800006004556000600755600060085560006009556000600b5562069780600c5562026ac0600d556000600e60006101000a81548160ff0219169083600381111562000060576200005f6200041f565b5b02179055506040518060c00160405280600060ff168152602001600f60ff168152602001600f60ff168152602001600f60ff168152602001600f60ff168152602001602860ff168152506012906006620000bc9291906200030f565b506040518060c00160405280600060ff168152602001600060ff168152602001600060ff168152602001600060ff168152602001600060ff168152602001600060ff168152506018906006620001149291906200030f565b506000601e553480156200012757600080fd5b50604051620057243803806200572483398181016040528101906200014d91906200038f565b600160008190555062000175620001696200024160201b60201c565b6200024960201b60201c565b82600560006101000a81548173ffffffffffffffffffffffffffffffffffffffff021916908373ffffffffffffffffffffffffffffffffffffffff16021790555081600660006101000a81548173ffffffffffffffffffffffffffffffffffffffff021916908373ffffffffffffffffffffffffffffffffffffffff16021790555080600360006101000a81548173ffffffffffffffffffffffffffffffffffffffff021916908373ffffffffffffffffffffffffffffffffffffffff1602179055505050506200046d565b600033905090565b6000600160009054906101000a900473ffffffffffffffffffffffffffffffffffffffff16905081600160006101000a81548173ffffffffffffffffffffffffffffffffffffffff021916908373ffffffffffffffffffffffffffffffffffffffff1602179055508173ffffffffffffffffffffffffffffffffffffffff168173ffffffffffffffffffffffffffffffffffffffff167f8be0079c531659141344cd1fd0a4f28419497f9722a3daafe3b4186f6b6457e060405160405180910390a35050565b826006810192821562000346579160200282015b8281111562000345578251829060ff1690559160200191906001019062000323565b5b50905062000355919062000359565b5090565b5b80821115620003745760008160009055506001016200035a565b5090565b600081519050620003898162000453565b92915050565b600080600060608486031215620003ab57620003aa6200044e565b5b6000620003bb8682870162000378565b9350506020620003ce8682870162000378565b9250506040620003e18682870162000378565b9150509250925092565b6000620003f882620003ff565b9050919050565b600073ffffffffffffffffffffffffffffffffffffffff82169050919050565b7f4e487b7100000000000000000000000000000000000000000000000000000000600052602160045260246000fd5b600080fd5b6200045e81620003eb565b81146200046a57600080fd5b50565b6152a7806200047d6000396000f3fe608060405234801561001057600080fd5b50600436106102945760003560e01c80636fd0981611610167578063cc32d176116100ce578063e76a052611610087578063e76a0526146107a5578063e94f6955146107c1578063ec573d1c146107df578063f2fde38b146107fb578063f897a22b14610817578063fca6d0df1461083557610294565b8063cc32d176146106f7578063ccb98ffc14610715578063d0fbe7fe14610731578063d75cd4441461074d578063dae58da814610769578063dcbad90d1461078757610294565b80638da5cb5b116101205780638da5cb5b1461061f57806397ff1cac1461063d578063b1eac37e1461066d578063c079fead1461068b578063c5f956af146106a9578063cba15a8e146106c757610294565b80636fd0981614610599578063715018a6146105a35780637363ae1f146105ad57806377e741c7146105c957806378e97925146105e557806388c618551461060357610294565b80633e0a322d1161020b5780634bc19fee116101c45780634bc19fee146104d75780635fea10c6146104f357806365d4517c1461050f578063686465b81461052d57806368f5f2b01461054b5780636b9a7d011461056757610294565b80633e0a322d146103ef5780633f5bffb71461040b578063420431701461043b5780634704370c14610459578063477f4eaf1461048957806349c01d3f146104b957610294565b80631ca1502f1161025d5780631ca1502f146103195780631d0769ca14610349578063200d2ed214610379578063218fe3a5146103975780633197cbb6146103b35780633cff0380146103d157610294565b806294cd311461029957806302a24770146102b75780631209b1f6146102d557806315981650146102f3578063160344e21461030f575b600080fd5b6102a1610853565b6040516102ae9190614091565b60405180910390f35b6102bf61089e565b6040516102cc9190614541565b60405180910390f35b6102dd6108a4565b6040516102ea9190614541565b60405180910390f35b61030d60048036038101906103089190613949565b6108aa565b005b6103176108bc565b005b610333600480360381019061032e9190613949565b610a63565b60405161034091906140ce565b60405180910390f35b610363600480360381019061035e9190613949565b610b31565b6040516103709190614541565b60405180910390f35b610381610b4c565b60405161038e9190614164565b60405180910390f35b6103b160048036038101906103ac919061382c565b610b5f565b005b6103bb610bab565b6040516103c89190614541565b60405180910390f35b6103d9610bb1565b6040516103e691906140ce565b60405180910390f35b61040960048036038101906104049190613949565b610c38565b005b6104256004803603810190610420919061382c565b610c4a565b60405161043291906140ac565b60405180910390f35b610443610e05565b6040516104509190614541565b60405180910390f35b610473600480360381019061046e919061382c565b610e0b565b60405161048091906140ac565b60405180910390f35b6104a3600480360381019061049e91906138d3565b610fec565b6040516104b09190614541565b60405180910390f35b6104c16110d3565b6040516104ce9190614541565b60405180910390f35b6104f160048036038101906104ec919061382c565b6110d9565b005b61050d600480360381019061050891906139a3565b611168565b005b6105176113e3565b6040516105249190614091565b60405180910390f35b61053561142e565b6040516105429190614541565b60405180910390f35b61056560048036038101906105609190613859565b611434565b005b610581600480360381019061057c9190613949565b6114c7565b604051610590939291906140f0565b60405180910390f35b6105a161165f565b005b6105ab61180d565b005b6105c760048036038101906105c29190613949565b611821565b005b6105e360048036038101906105de9190613949565b611a76565b005b6105ed611a88565b6040516105fa9190614541565b60405180910390f35b61061d60048036038101906106189190613886565b611a8e565b005b610627611f4c565b6040516106349190614016565b60405180910390f35b61065760048036038101906106529190613949565b611f76565b6040516106649190614541565b60405180910390f35b610675611f91565b6040516106829190614541565b60405180910390f35b610693611f97565b6040516106a09190614541565b60405180910390f35b6106b1611f9d565b6040516106be9190614016565b60405180910390f35b6106e160048036038101906106dc9190613949565b611fc3565b6040516106ee9190614541565b60405180910390f35b6106ff61217f565b60405161070c9190614541565b60405180910390f35b61072f600480360381019061072a9190613949565b612185565b005b61074b60048036038101906107469190613886565b612197565b005b61076760048036038101906107629190613949565b612687565b005b61077161293c565b60405161077e9190614541565b60405180910390f35b61078f612942565b60405161079c9190614149565b60405180910390f35b6107bf60048036038101906107ba9190613949565b612968565b005b6107c961297a565b6040516107d69190614541565b60405180910390f35b6107f960048036038101906107f4919061382c565b612980565b005b6108156004803603810190610810919061382c565b612a0f565b005b61081f612a93565b60405161082c919061412e565b60405180910390f35b61083d612ab9565b60405161084a9190614541565b60405180910390f35b61085b6135d3565b6018600680602002604051908101604052809291908260068015610894576020028201915b815481526020019060010190808311610880575b5050505050905090565b60115481565b60045481565b6108b2612ad1565b8060048190555050565b6108c533612b4f565b15610905576040517f08c379a00000000000000000000000000000000000000000000000000000000081526004016108fc90614261565b60405180910390fd5b3273ffffffffffffffffffffffffffffffffffffffff163373ffffffffffffffffffffffffffffffffffffffff1614610973576040517f08c379a000000000000000000000000000000000000000000000000000000000815260040161096a906143a1565b60405180910390fd5b61097b612ad1565b6000600381111561098f5761098e614aa8565b5b600e60009054906101000a900460ff1660038111156109b1576109b0614aa8565b5b146109f1576040517f08c379a00000000000000000000000000000000000000000000000000000000081526004016109e8906142a1565b60405180910390fd5b42600f541115610a36576040517f08c379a0000000000000000000000000000000000000000000000000000000008152600401610a2d906141a1565b60405180910390fd5b6001600e60006101000a81548160ff02191690836003811115610a5c57610a5b614aa8565b5b0217905550565b60606000600667ffffffffffffffff811115610a8257610a81614b06565b5b604051908082528060200260200182016040528015610ab05781602001602082028036833780820191505090505b50905060005b6006811015610b27576001604285610ace9190614a19565b610ad89190614723565b828281518110610aeb57610aea614ad7565b5b602002602001019063ffffffff16908163ffffffff1681525050604284610b12919061475d565b93508080610b1f906149a3565b915050610ab6565b5080915050919050565b60188160068110610b4157600080fd5b016000915090505481565b600e60009054906101000a900460ff1681565b610b67612ad1565b80600560006101000a81548173ffffffffffffffffffffffffffffffffffffffff021916908373ffffffffffffffffffffffffffffffffffffffff16021790555050565b60105481565b6060600380811115610bc657610bc5614aa8565b5b600e60009054906101000a900460ff166003811115610be857610be7614aa8565b5b14610c28576040517f08c379a0000000000000000000000000000000000000000000000000000000008152600401610c1f90614321565b60405180910390fd5b610c33601e54610a63565b905090565b610c40612ad1565b80600f8190555050565b60606000600b5467ffffffffffffffff811115610c6a57610c69614b06565b5b604051908082528060200260200182016040528015610c985781602001602082028036833780820191505090505b5090506000805b600b54811015610d53578473ffffffffffffffffffffffffffffffffffffffff16600a600083815260200190815260200160002060010160009054906101000a900473ffffffffffffffffffffffffffffffffffffffff1673ffffffffffffffffffffffffffffffffffffffff161415610d405780838380610d20906149a3565b945081518110610d3357610d32614ad7565b5b6020026020010181815250505b8080610d4b906149a3565b915050610c9f565b5060008167ffffffffffffffff811115610d7057610d6f614b06565b5b604051908082528060200260200182016040528015610d9e5781602001602082028036833780820191505090505b50905060005b82811015610df957838181518110610dbf57610dbe614ad7565b5b6020026020010151828281518110610dda57610dd9614ad7565b5b6020026020010181815250508080610df1906149a3565b915050610da4565b50809350505050919050565b600d5481565b60606000610e1883610c4a565b90506000815167ffffffffffffffff811115610e3757610e36614b06565b5b604051908082528060200260200182016040528015610e655781602001602082028036833780820191505090505b5090506000805b8351811015610f39576000600a6000868481518110610e8e57610e8d614ad7565b5b60200260200101518152602001908152602001600020600001601c9054906101000a900463ffffffff1663ffffffff169050600060188260068110610ed657610ed5614ad7565b5b01541115610f2557848281518110610ef157610ef0614ad7565b5b6020026020010151848480610f05906149a3565b955081518110610f1857610f17614ad7565b5b6020026020010181815250505b508080610f31906149a3565b915050610e6c565b5060008167ffffffffffffffff811115610f5657610f55614b06565b5b604051908082528060200260200182016040528015610f845781602001602082028036833780820191505090505b50905060005b82811015610fdf57838181518110610fa557610fa4614ad7565b5b6020026020010151828281518110610fc057610fbf614ad7565b5b6020026020010181815250508080610fd7906149a3565b915050610f8a565b5080945050505050919050565b600060038081111561100157611000614aa8565b5b600e60009054906101000a900460ff16600381111561102357611022614aa8565b5b141580611031575060008251145b1561103f57600090506110ce565b6000805b83518110156110c8576018600a600086848151811061106557611064614ad7565b5b60200260200101518152602001908152602001600020600001601c9054906101000a900463ffffffff1663ffffffff16600681106110a6576110a5614ad7565b5b0154826110b391906146cd565b915080806110c0906149a3565b915050611043565b50809150505b919050565b600c5481565b6110e1612ad1565b80600660006101000a81548173ffffffffffffffffffffffffffffffffffffffff021916908373ffffffffffffffffffffffffffffffffffffffff1602179055508073ffffffffffffffffffffffffffffffffffffffff167f383f8cb39dfa7c3fb901a460dd449ea924868f0a92ff03da64740fffa5f1de6260405160405180910390a250565b611170612ad1565b60038081111561118357611182614aa8565b5b600e60009054906101000a900460ff1660038111156111a5576111a4614aa8565b5b14156111f05760115442116111ef576040517f08c379a00000000000000000000000000000000000000000000000000000000081526004016111e6906144a1565b60405180910390fd5b5b600082141580611201575060008114155b611240576040517f08c379a000000000000000000000000000000000000000000000000000000000815260040161123790614201565b60405180910390fd5b6000811461125957600c548161125691906147e8565b91505b42821161129b576040517f08c379a000000000000000000000000000000000000000000000000000000000815260040161129290614301565b60405180910390fd5b6000600e60006101000a81548160ff021916908360038111156112c1576112c0614aa8565b5b021790555081600f81905550600c54826112db91906146cd565b601081905550600d546010546112f191906146cd565b6011819055506000600b81905550600560009054906101000a900473ffffffffffffffffffffffffffffffffffffffff1673ffffffffffffffffffffffffffffffffffffffff166370a08231306040518263ffffffff1660e01b815260040161135a9190614016565b60206040518083038186803b15801561137257600080fd5b505afa158015611386573d6000803e3d6000fd5b505050506040513d601f19601f820116820180604052508101906113aa9190613976565b600981905550600f547f931b31da73fd887ac2b49ca80ca85bcd1a4c2803b58f53d7d9fcc85ebec3b9fa60405160405180910390a25050565b6113eb6135d3565b6012600680602002604051908101604052809291908260068015611424576020028201915b815481526020019060010190808311611410575b5050505050905090565b600b5481565b61143c612ad1565b600060038111156114505761144f614aa8565b5b600e60009054906101000a900460ff16600381111561147257611471614aa8565b5b146114b2576040517f08c379a00000000000000000000000000000000000000000000000000000000081526004016114a990614281565b60405180910390fd5b8060129060066114c39291906135f5565b5050565b6060600080600b548410611510576040517f08c379a0000000000000000000000000000000000000000000000000000000008152600401611507906141e1565b60405180910390fd5b6000600a60008681526020019081526020016000206040518060600160405290816000820160009054906101000a90047bffffffffffffffffffffffffffffffffffffffffffffffffffffffff167bffffffffffffffffffffffffffffffffffffffffffffffffffffffff167bffffffffffffffffffffffffffffffffffffffffffffffffffffffff16815260200160008201601c9054906101000a900463ffffffff1663ffffffff1663ffffffff1681526020016001820160009054906101000a900473ffffffffffffffffffffffffffffffffffffffff1673ffffffffffffffffffffffffffffffffffffffff1673ffffffffffffffffffffffffffffffffffffffff1681525050905061164781600001517bffffffffffffffffffffffffffffffffffffffffffffffffffffffff16610a63565b81602001518260400151935093509350509193909250565b61166833612b4f565b156116a8576040517f08c379a000000000000000000000000000000000000000000000000000000000815260040161169f90614261565b60405180910390fd5b3273ffffffffffffffffffffffffffffffffffffffff163373ffffffffffffffffffffffffffffffffffffffff1614611716576040517f08c379a000000000000000000000000000000000000000000000000000000000815260040161170d906143a1565b60405180910390fd5b61171e612ad1565b426010541115611763576040517f08c379a000000000000000000000000000000000000000000000000000000000815260040161175a90614461565b60405180910390fd5b6001600381111561177757611776614aa8565b5b600e60009054906101000a900460ff16600381111561179957611798614aa8565b5b146117d9576040517f08c379a00000000000000000000000000000000000000000000000000000000081526004016117d090614421565b60405180910390fd5b6002600e60006101000a81548160ff021916908360038111156117ff576117fe614aa8565b5b021790555043600781905550565b611815612ad1565b61181f6000612b62565b565b61182a33612b4f565b1561186a576040517f08c379a000000000000000000000000000000000000000000000000000000000815260040161186190614261565b60405180910390fd5b3273ffffffffffffffffffffffffffffffffffffffff163373ffffffffffffffffffffffffffffffffffffffff16146118d8576040517f08c379a00000000000000000000000000000000000000000000000000000000081526004016118cf906143a1565b60405180910390fd5b6118e0612ad1565b600260038111156118f4576118f3614aa8565b5b600e60009054906101000a900460ff16600381111561191657611915614aa8565b5b14611956576040517f08c379a000000000000000000000000000000000000000000000000000000000815260040161194d90614501565b60405180910390fd5b426011541161199a576040517f08c379a000000000000000000000000000000000000000000000000000000000815260040161199190614241565b60405180910390fd5b6007544314156119df576040517f08c379a00000000000000000000000000000000000000000000000000000000081526004016119d6906141c1565b60405180910390fd5b43600881905550600660009054906101000a900473ffffffffffffffffffffffffffffffffffffffff1673ffffffffffffffffffffffffffffffffffffffff1663ce0d44a5826040518263ffffffff1660e01b8152600401611a419190614541565b600060405180830381600087803b158015611a5b57600080fd5b505af1158015611a6f573d6000803e3d6000fd5b5050505050565b611a7e612ad1565b8060028190555050565b600f5481565b611a9733612b4f565b15611ad7576040517f08c379a0000000000000000000000000000000000000000000000000000000008152600401611ace90614261565b60405180910390fd5b3273ffffffffffffffffffffffffffffffffffffffff163373ffffffffffffffffffffffffffffffffffffffff1614611b45576040517f08c379a0000000000000000000000000000000000000000000000000000000008152600401611b3c906143a1565b60405180910390fd5b611b4d612c28565b600380811115611b6057611b5f614aa8565b5b600e60009054906101000a900460ff166003811115611b8257611b81614aa8565b5b14611bc2576040517f08c379a0000000000000000000000000000000000000000000000000000000008152600401611bb990614321565b60405180910390fd5b60008282905011611c08576040517f08c379a0000000000000000000000000000000000000000000000000000000008152600401611bff90614441565b60405180910390fd5b6011544210611c4c576040517f08c379a0000000000000000000000000000000000000000000000000000000008152600401611c43906142c1565b60405180910390fd5b6000805b83839050811015611e60576000848483818110611c7057611c6f614ad7565b5b905060200201359050600b548110611cbd576040517f08c379a0000000000000000000000000000000000000000000000000000000008152600401611cb4906141e1565b60405180910390fd5b3373ffffffffffffffffffffffffffffffffffffffff16600a600083815260200190815260200160002060010160009054906101000a900473ffffffffffffffffffffffffffffffffffffffff1673ffffffffffffffffffffffffffffffffffffffff1614611d61576040517f08c379a0000000000000000000000000000000000000000000000000000000008152600401611d5890614521565b60405180910390fd5b6018600a6000838152602001908152602001600020600001601c9054906101000a900463ffffffff1663ffffffff1660068110611da157611da0614ad7565b5b015483611dae91906146cd565b9250600a6000868685818110611dc757611dc6614ad7565b5b905060200201358152602001908152602001600020600080820160006101000a8154907bffffffffffffffffffffffffffffffffffffffffffffffffffffffff021916905560008201601c6101000a81549063ffffffff02191690556001820160006101000a81549073ffffffffffffffffffffffffffffffffffffffff02191690555050508080611e58906149a3565b915050611c50565b5060008111611ea4576040517f08c379a0000000000000000000000000000000000000000000000000000000008152600401611e9b906143c1565b60405180910390fd5b611ef13382600560009054906101000a900473ffffffffffffffffffffffffffffffffffffffff1673ffffffffffffffffffffffffffffffffffffffff16612c789092919063ffffffff16565b3373ffffffffffffffffffffffffffffffffffffffff167fc471ef95ea81f4f24bb1a51ba0bd8904858507d29dfdbde1882413b20fcc36ee82604051611f379190614541565b60405180910390a250611f48612cfe565b5050565b6000600160009054906101000a900473ffffffffffffffffffffffffffffffffffffffff16905090565b60128160068110611f8657600080fd5b016000915090505481565b60095481565b60075481565b600360009054906101000a900473ffffffffffffffffffffffffffffffffffffffff1681565b600080604267ffffffffffffffff811115611fe157611fe0614b06565b5b60405190808252806020026020018201604052801561200f5781602001602082028036833780820191505090505b5090506000805b60068110156120e257604281604261202e91906147e8565b866120399190614a19565b8361204491906146cd565b61204e9190614a19565b91506101008561205e919061475d565b94505b600083838151811061207657612075614ad7565b5b602002602001015160ff16146120a6578180612091906149a3565b925050604282106120a157600091505b612061565b60018383815181106120bb576120ba614ad7565b5b602002602001019060ff16908160ff168152505080806120da906149a3565b915050612016565b506000905060006042905060005b60068110156121735760018460018461210991906147e8565b8151811061211a57612119614ad7565b5b602002602001015160ff1614156121605760018260428561213b919061478e565b61214591906146cd565b61214f91906147e8565b9250808061215c906149a3565b9150505b818061216b90614948565b9250506120f0565b50819350505050919050565b60025481565b61218d612ad1565b8060108190555050565b6121a033612b4f565b156121e0576040517f08c379a00000000000000000000000000000000000000000000000000000000081526004016121d790614261565b60405180910390fd5b3273ffffffffffffffffffffffffffffffffffffffff163373ffffffffffffffffffffffffffffffffffffffff161461224e576040517f08c379a0000000000000000000000000000000000000000000000000000000008152600401612245906143a1565b60405180910390fd5b612256612c28565b6001600381111561226a57612269614aa8565b5b600e60009054906101000a900460ff16600381111561228c5761228b614aa8565b5b146122cc576040517f08c379a00000000000000000000000000000000000000000000000000000000081526004016122c390614421565b60405180910390fd5b6010544210612310576040517f08c379a000000000000000000000000000000000000000000000000000000000815260040161230790614401565b60405180910390fd5b60008282905011612356576040517f08c379a000000000000000000000000000000000000000000000000000000000815260040161234d90614381565b60405180910390fd5b600060045483839050612369919061478e565b905080600560009054906101000a900473ffffffffffffffffffffffffffffffffffffffff1673ffffffffffffffffffffffffffffffffffffffff166370a08231336040518263ffffffff1660e01b81526004016123c79190614016565b60206040518083038186803b1580156123df57600080fd5b505afa1580156123f3573d6000803e3d6000fd5b505050506040513d601f19601f820116820180604052508101906124179190613976565b1015612458576040517f08c379a000000000000000000000000000000000000000000000000000000000815260040161244f90614361565b60405180910390fd5b6124a7333083600560009054906101000a900473ffffffffffffffffffffffffffffffffffffffff1673ffffffffffffffffffffffffffffffffffffffff16612d08909392919063ffffffff16565b60005b838390508110156126285760405180606001604052808585848181106124d3576124d2614ad7565b5b905060200201357bffffffffffffffffffffffffffffffffffffffffffffffffffffffff168152602001600063ffffffff1681526020013373ffffffffffffffffffffffffffffffffffffffff16815250600a6000600b600081548092919061253b906149a3565b91905055815260200190815260200160002060008201518160000160006101000a8154817bffffffffffffffffffffffffffffffffffffffffffffffffffffffff02191690837bffffffffffffffffffffffffffffffffffffffffffffffffffffffff160217905550602082015181600001601c6101000a81548163ffffffff021916908363ffffffff16021790555060408201518160010160006101000a81548173ffffffffffffffffffffffffffffffffffffffff021916908373ffffffffffffffffffffffffffffffffffffffff1602179055509050508080612620906149a3565b9150506124aa565b503373ffffffffffffffffffffffffffffffffffffffff167fe23b461eeed3050b94c37e728bd38158dbcd40bb83994f44bfb639678c6a1029848490506040516126729190614541565b60405180910390a250612683612cfe565b5050565b61269033612b4f565b156126d0576040517f08c379a00000000000000000000000000000000000000000000000000000000081526004016126c790614261565b60405180910390fd5b3273ffffffffffffffffffffffffffffffffffffffff163373ffffffffffffffffffffffffffffffffffffffff161461273e576040517f08c379a0000000000000000000000000000000000000000000000000000000008152600401612735906143a1565b60405180910390fd5b612746612ad1565b6002600381111561275a57612759614aa8565b5b600e60009054906101000a900460ff16600381111561277c5761277b614aa8565b5b146127bc576040517f08c379a00000000000000000000000000000000000000000000000000000000081526004016127b390614501565b60405180910390fd5b4260115411612800576040517f08c379a00000000000000000000000000000000000000000000000000000000081526004016127f790614241565b60405180910390fd5b600854431415612845576040517f08c379a000000000000000000000000000000000000000000000000000000000815260040161283c90614341565b60405180910390fd5b6003600e60006101000a81548160ff0219169083600381111561286b5761286a614aa8565b5b02179055506000600660009054906101000a900473ffffffffffffffffffffffffffffffffffffffff1673ffffffffffffffffffffffffffffffffffffffff166389c16e08836040518263ffffffff1660e01b81526004016128cd9190614541565b602060405180830381600087803b1580156128e757600080fd5b505af11580156128fb573d6000803e3d6000fd5b505050506040513d601f19601f8201168201806040525081019061291f9190613976565b905061292a81611fc3565b601e81905550612938612d91565b5050565b601e5481565b600660009054906101000a900473ffffffffffffffffffffffffffffffffffffffff1681565b612970612ad1565b8060118190555050565b60085481565b612988612ad1565b80600360006101000a81548173ffffffffffffffffffffffffffffffffffffffff021916908373ffffffffffffffffffffffffffffffffffffffff1602179055508073ffffffffffffffffffffffffffffffffffffffff167f8b4531436af204a864adc47c345e10cb5c4df79165aa0cb85fc45ac5b551517b60405160405180910390a250565b612a17612ad1565b600073ffffffffffffffffffffffffffffffffffffffff168173ffffffffffffffffffffffffffffffffffffffff161415612a87576040517f08c379a0000000000000000000000000000000000000000000000000000000008152600401612a7e90614221565b60405180910390fd5b612a9081612b62565b50565b600560009054906101000a900473ffffffffffffffffffffffffffffffffffffffff1681565b6000612acc612ac733610e0b565b610fec565b905090565b612ad9613335565b73ffffffffffffffffffffffffffffffffffffffff16612af7611f4c565b73ffffffffffffffffffffffffffffffffffffffff1614612b4d576040517f08c379a0000000000000000000000000000000000000000000000000000000008152600401612b44906143e1565b60405180910390fd5b565b600080823b905060008111915050919050565b6000600160009054906101000a900473ffffffffffffffffffffffffffffffffffffffff16905081600160006101000a81548173ffffffffffffffffffffffffffffffffffffffff021916908373ffffffffffffffffffffffffffffffffffffffff1602179055508173ffffffffffffffffffffffffffffffffffffffff168173ffffffffffffffffffffffffffffffffffffffff167f8be0079c531659141344cd1fd0a4f28419497f9722a3daafe3b4186f6b6457e060405160405180910390a35050565b60026000541415612c6e576040517f08c379a0000000000000000000000000000000000000000000000000000000008152600401612c65906144e1565b60405180910390fd5b6002600081905550565b612cf98363a9059cbb60e01b8484604051602401612c97929190614068565b604051602081830303815290604052907bffffffffffffffffffffffffffffffffffffffffffffffffffffffff19166020820180517bffffffffffffffffffffffffffffffffffffffffffffffffffffffff838183161783525050505061333d565b505050565b6001600081905550565b612d8b846323b872dd60e01b858585604051602401612d2993929190614031565b604051602081830303815290604052907bffffffffffffffffffffffffffffffffffffffffffffffffffffffff19166020820180517bffffffffffffffffffffffffffffffffffffffffffffffffffffffff838183161783525050505061333d565b50505050565b6000600667ffffffffffffffff811115612dae57612dad614b06565b5b604051908082528060200260200182016040528015612ddc5781602001602082028036833780820191505090505b50905060005b600b54811015612fe3576000600a600083815260200190815260200160002090506000601e54905060008260000160009054906101000a90047bffffffffffffffffffffffffffffffffffffffffffffffffffffffff167bffffffffffffffffffffffffffffffffffffffffffffffffffffffff1690506000805b6006811015612ec657604283612e739190614a19565b604285612e809190614a19565b1415612e95578180612e91906149ec565b9250505b604284612ea2919061475d565b9350604283612eb1919061475d565b92508080612ebe906149a3565b915050612e5d565b5060008163ffffffff161115612f4857600181612ee3919061481c565b84600001601c6101000a81548163ffffffff021916908363ffffffff16021790555085600182612f13919061481c565b63ffffffff1681518110612f2a57612f29614ad7565b5b602002602001018051809190612f3f906149a3565b81525050612fcc565b600a6000868152602001908152602001600020600080820160006101000a8154907bffffffffffffffffffffffffffffffffffffffffffffffffffffffff021916905560008201601c6101000a81549063ffffffff02191690556001820160006101000a81549073ffffffffffffffffffffffffffffffffffffffff021916905550505b505050508080612fdb906149a3565b915050612de2565b506000600954600560009054906101000a900473ffffffffffffffffffffffffffffffffffffffff1673ffffffffffffffffffffffffffffffffffffffff166370a08231306040518263ffffffff1660e01b81526004016130449190614016565b60206040518083038186803b15801561305c57600080fd5b505afa158015613070573d6000803e3d6000fd5b505050506040513d601f19601f820116820180604052508101906130949190613976565b61309e91906147e8565b905060006064600254836130b2919061478e565b6130bc919061475d565b9050600560009054906101000a900473ffffffffffffffffffffffffffffffffffffffff1673ffffffffffffffffffffffffffffffffffffffff1663a9059cbb600360009054906101000a900473ffffffffffffffffffffffffffffffffffffffff16836040518363ffffffff1660e01b815260040161313d929190614068565b602060405180830381600087803b15801561315757600080fd5b505af115801561316b573d6000803e3d6000fd5b505050506040513d601f19601f8201168201806040525081019061318f919061391c565b50808261319c91906147e8565b915060005b60058110156132375760008482815181106131bf576131be614ad7565b5b602002602001015190506000811461322357806064601284600681106131e8576131e7614ad7565b5b0154866131f5919061478e565b6131ff919061475d565b613209919061475d565b6018836006811061321d5761321c614ad7565b5b01819055505b50808061322f906149a3565b9150506131a1565b5060008360058151811061324e5761324d614ad7565b5b6020026020010151146132d7578260058151811061326f5761326e614ad7565b5b60200260200101516064601260056006811061328e5761328d614ad7565b5b01548461329b919061478e565b6132a5919061475d565b6009546132b291906146cd565b6132bc919061475d565b60186005600681106132d1576132d0614ad7565b5b01819055505b600f547f9d53f2b115229c0fb6c01a6dcc67fcc582e8eea41b8d0318191c52190c9d3de6601e548560058151811061331257613311614ad7565b5b602002602001015160405161332892919061455c565b60405180910390a2505050565b600033905090565b600061339f826040518060400160405280602081526020017f5361666545524332303a206c6f772d6c6576656c2063616c6c206661696c65648152508573ffffffffffffffffffffffffffffffffffffffff166134059092919063ffffffff16565b90506000815114806133c15750808060200190518101906133c0919061391c565b5b613400576040517f08c379a00000000000000000000000000000000000000000000000000000000081526004016133f7906144c1565b60405180910390fd5b505050565b6060613414848460008561341d565b90509392505050565b606082471015613462576040517f08c379a0000000000000000000000000000000000000000000000000000000008152600401613459906142e1565b60405180910390fd5b6000808673ffffffffffffffffffffffffffffffffffffffff16858760405161348b9190613fff565b60006040518083038185875af1925050503d80600081146134c8576040519150601f19603f3d011682016040523d82523d6000602084013e6134cd565b606091505b50915091506134de878383876134ea565b92505050949350505050565b6060831561354d576000835114156135455761350585613560565b613544576040517f08c379a000000000000000000000000000000000000000000000000000000000815260040161353b90614481565b60405180910390fd5b5b829050613558565b6135578383613583565b5b949350505050565b6000808273ffffffffffffffffffffffffffffffffffffffff163b119050919050565b6000825111156135965781518083602001fd5b806040517f08c379a00000000000000000000000000000000000000000000000000000000081526004016135ca919061417f565b60405180910390fd5b6040518060c00160405280600690602082028036833780820191505090505090565b8260068101928215613624579160200282015b82811115613623578251825591602001919060010190613608565b5b5090506136319190613635565b5090565b5b8082111561364e576000816000905550600101613636565b5090565b6000613665613660846145aa565b614585565b9050808285602086028201111561367f5761367e614b3f565b5b60005b858110156136af57816136958882613802565b845260208401935060208301925050600181019050613682565b5050509392505050565b60006136cc6136c7846145d0565b614585565b905080838252602082019050828560208602820111156136ef576136ee614b3f565b5b60005b8581101561371f57816137058882613802565b8452602084019350602083019250506001810190506136f2565b5050509392505050565b6000813590506137388161522c565b92915050565b600082601f83011261375357613752614b3a565b5b6006613760848285613652565b91505092915050565b60008083601f84011261377f5761377e614b3a565b5b8235905067ffffffffffffffff81111561379c5761379b614b35565b5b6020830191508360208202830111156137b8576137b7614b3f565b5b9250929050565b600082601f8301126137d4576137d3614b3a565b5b81356137e48482602086016136b9565b91505092915050565b6000815190506137fc81615243565b92915050565b6000813590506138118161525a565b92915050565b6000815190506138268161525a565b92915050565b60006020828403121561384257613841614b49565b5b600061385084828501613729565b91505092915050565b600060c0828403121561386f5761386e614b49565b5b600061387d8482850161373e565b91505092915050565b6000806020838503121561389d5761389c614b49565b5b600083013567ffffffffffffffff8111156138bb576138ba614b44565b5b6138c785828601613769565b92509250509250929050565b6000602082840312156138e9576138e8614b49565b5b600082013567ffffffffffffffff81111561390757613906614b44565b5b613913848285016137bf565b91505092915050565b60006020828403121561393257613931614b49565b5b6000613940848285016137ed565b91505092915050565b60006020828403121561395f5761395e614b49565b5b600061396d84828501613802565b91505092915050565b60006020828403121561398c5761398b614b49565b5b600061399a84828501613817565b91505092915050565b600080604083850312156139ba576139b9614b49565b5b60006139c885828601613802565b92505060206139d985828601613802565b9150509250929050565b60006139ef8383613fc3565b60208301905092915050565b6000613a078383613fe1565b60208301905092915050565b613a1c81614850565b82525050565b613a2b81614626565b613a358184614684565b9250613a40826145fc565b8060005b83811015613a71578151613a5887826139e3565b9650613a638361465d565b925050600181019050613a44565b505050505050565b6000613a8482614631565b613a8e818561468f565b9350613a9983614606565b8060005b83811015613aca578151613ab188826139e3565b9750613abc8361466a565b925050600181019050613a9d565b5085935050505092915050565b6000613ae28261463c565b613aec81856146a0565b9350613af783614616565b8060005b83811015613b28578151613b0f88826139fb565b9750613b1a83614677565b925050600181019050613afb565b5085935050505092915050565b6000613b4082614647565b613b4a81856146b1565b9350613b5a818560208601614915565b80840191505092915050565b613b6f816148bb565b82525050565b613b7e816148df565b82525050565b613b8d81614903565b82525050565b6000613b9e82614652565b613ba881856146bc565b9350613bb8818560208601614915565b613bc181614b4e565b840191505092915050565b6000613bd96025836146bc565b9150613be482614b5f565b604082019050919050565b6000613bfc6044836146bc565b9150613c0782614bae565b606082019050919050565b6000613c1f6010836146bc565b9150613c2a82614c23565b602082019050919050565b6000613c426029836146bc565b9150613c4d82614c4c565b604082019050919050565b6000613c656026836146bc565b9150613c7082614c9b565b604082019050919050565b6000613c886027836146bc565b9150613c9382614cea565b604082019050919050565b6000613cab6014836146bc565b9150613cb682614d39565b602082019050919050565b6000613cce6018836146bc565b9150613cd982614d62565b602082019050919050565b6000613cf16017836146bc565b9150613cfc82614d8b565b602082019050919050565b6000613d146028836146bc565b9150613d1f82614db4565b604082019050919050565b6000613d376026836146bc565b9150613d4282614e03565b604082019050919050565b6000613d5a6027836146bc565b9150613d6582614e52565b604082019050919050565b6000613d7d6015836146bc565b9150613d8882614ea1565b602082019050919050565b6000613da06048836146bc565b9150613dab82614eca565b606082019050919050565b6000613dc3601c836146bc565b9150613dce82614f3f565b602082019050919050565b6000613de66014836146bc565b9150613df182614f68565b602082019050919050565b6000613e09601a836146bc565b9150613e1482614f91565b602082019050919050565b6000613e2c6009836146bc565b9150613e3782614fba565b602082019050919050565b6000613e4f6020836146bc565b9150613e5a82614fe3565b602082019050919050565b6000613e726020836146bc565b9150613e7d8261500c565b602082019050919050565b6000613e956010836146bc565b9150613ea082615035565b602082019050919050565b6000613eb86016836146bc565b9150613ec38261505e565b602082019050919050565b6000613edb6023836146bc565b9150613ee682615087565b604082019050919050565b6000613efe601d836146bc565b9150613f09826150d6565b602082019050919050565b6000613f216021836146bc565b9150613f2c826150ff565b604082019050919050565b6000613f44602a836146bc565b9150613f4f8261514e565b604082019050919050565b6000613f67601f836146bc565b9150613f728261519d565b602082019050919050565b6000613f8a6012836146bc565b9150613f95826151c6565b602082019050919050565b6000613fad601b836146bc565b9150613fb8826151ef565b602082019050919050565b613fcc816148a1565b82525050565b613fdb816148a1565b82525050565b613fea816148ab565b82525050565b613ff9816148ab565b82525050565b600061400b8284613b35565b915081905092915050565b600060208201905061402b6000830184613a13565b92915050565b60006060820190506140466000830186613a13565b6140536020830185613a13565b6140606040830184613fd2565b949350505050565b600060408201905061407d6000830185613a13565b61408a6020830184613fd2565b9392505050565b600060c0820190506140a66000830184613a22565b92915050565b600060208201905081810360008301526140c68184613a79565b905092915050565b600060208201905081810360008301526140e88184613ad7565b905092915050565b6000606082019050818103600083015261410a8186613ad7565b90506141196020830185613ff0565b6141266040830184613a13565b949350505050565b60006020820190506141436000830184613b66565b92915050565b600060208201905061415e6000830184613b75565b92915050565b60006020820190506141796000830184613b84565b92915050565b600060208201905081810360008301526141998184613b93565b905092915050565b600060208201905081810360008301526141ba81613bcc565b9050919050565b600060208201905081810360008301526141da81613bef565b9050919050565b600060208201905081810360008301526141fa81613c12565b9050919050565b6000602082019050818103600083015261421a81613c35565b9050919050565b6000602082019050818103600083015261423a81613c58565b9050919050565b6000602082019050818103600083015261425a81613c7b565b9050919050565b6000602082019050818103600083015261427a81613c9e565b9050919050565b6000602082019050818103600083015261429a81613cc1565b9050919050565b600060208201905081810360008301526142ba81613ce4565b9050919050565b600060208201905081810360008301526142da81613d07565b9050919050565b600060208201905081810360008301526142fa81613d2a565b9050919050565b6000602082019050818103600083015261431a81613d4d565b9050919050565b6000602082019050818103600083015261433a81613d70565b9050919050565b6000602082019050818103600083015261435a81613d93565b9050919050565b6000602082019050818103600083015261437a81613db6565b9050919050565b6000602082019050818103600083015261439a81613dd9565b9050919050565b600060208201905081810360008301526143ba81613dfc565b9050919050565b600060208201905081810360008301526143da81613e1f565b9050919050565b600060208201905081810360008301526143fa81613e42565b9050919050565b6000602082019050818103600083015261441a81613e65565b9050919050565b6000602082019050818103600083015261443a81613e88565b9050919050565b6000602082019050818103600083015261445a81613eab565b9050919050565b6000602082019050818103600083015261447a81613ece565b9050919050565b6000602082019050818103600083015261449a81613ef1565b9050919050565b600060208201905081810360008301526144ba81613f14565b9050919050565b600060208201905081810360008301526144da81613f37565b9050919050565b600060208201905081810360008301526144fa81613f5a565b9050919050565b6000602082019050818103600083015261451a81613f7d565b9050919050565b6000602082019050818103600083015261453a81613fa0565b9050919050565b60006020820190506145566000830184613fd2565b92915050565b60006040820190506145716000830185613fd2565b61457e6020830184613fd2565b9392505050565b600061458f6145a0565b905061459b8282614972565b919050565b6000604051905090565b600067ffffffffffffffff8211156145c5576145c4614b06565b5b602082029050919050565b600067ffffffffffffffff8211156145eb576145ea614b06565b5b602082029050602081019050919050565b6000819050919050565b6000819050602082019050919050565b6000819050602082019050919050565b600060069050919050565b600081519050919050565b600081519050919050565b600081519050919050565b600081519050919050565b6000602082019050919050565b6000602082019050919050565b6000602082019050919050565b600081905092915050565b600082825260208201905092915050565b600082825260208201905092915050565b600081905092915050565b600082825260208201905092915050565b60006146d8826148a1565b91506146e3836148a1565b9250827fffffffffffffffffffffffffffffffffffffffffffffffffffffffffffffffff0382111561471857614717614a4a565b5b828201905092915050565b600061472e826148ab565b9150614739836148ab565b92508263ffffffff0382111561475257614751614a4a565b5b828201905092915050565b6000614768826148a1565b9150614773836148a1565b92508261478357614782614a79565b5b828204905092915050565b6000614799826148a1565b91506147a4836148a1565b9250817fffffffffffffffffffffffffffffffffffffffffffffffffffffffffffffffff04831182151516156147dd576147dc614a4a565b5b828202905092915050565b60006147f3826148a1565b91506147fe836148a1565b92508282101561481157614810614a4a565b5b828203905092915050565b6000614827826148ab565b9150614832836148ab565b92508282101561484557614844614a4a565b5b828203905092915050565b600061485b82614881565b9050919050565b60008115159050919050565b600081905061487c82615218565b919050565b600073ffffffffffffffffffffffffffffffffffffffff82169050919050565b6000819050919050565b600063ffffffff82169050919050565b60006148c6826148cd565b9050919050565b60006148d882614881565b9050919050565b60006148ea826148f1565b9050919050565b60006148fc82614881565b9050919050565b600061490e8261486e565b9050919050565b60005b83811015614933578082015181840152602081019050614918565b83811115614942576000848401525b50505050565b6000614953826148a1565b9150600082141561496757614966614a4a565b5b600182039050919050565b61497b82614b4e565b810181811067ffffffffffffffff8211171561499a57614999614b06565b5b80604052505050565b60006149ae826148a1565b91507fffffffffffffffffffffffffffffffffffffffffffffffffffffffffffffffff8214156149e1576149e0614a4a565b5b600182019050919050565b60006149f7826148ab565b915063ffffffff821415614a0e57614a0d614a4a565b5b600182019050919050565b6000614a24826148a1565b9150614a2f836148a1565b925082614a3f57614a3e614a79565b5b828206905092915050565b7f4e487b7100000000000000000000000000000000000000000000000000000000600052601160045260246000fd5b7f4e487b7100000000000000000000000000000000000000000000000000000000600052601260045260246000fd5b7f4e487b7100000000000000000000000000000000000000000000000000000000600052602160045260246000fd5b7f4e487b7100000000000000000000000000000000000000000000000000000000600052603260045260246000fd5b7f4e487b7100000000000000000000000000000000000000000000000000000000600052604160045260246000fd5b600080fd5b600080fd5b600080fd5b600080fd5b600080fd5b6000601f19601f8301169050919050565b7f43616e6e6f74207374617274206c6f7474657279206265666f7265207374617260008201527f7454696d65000000000000000000000000000000000000000000000000000000602082015250565b7f7265717565737452616e646f6d6e6573732063616e6e6f742062652063616c6c60008201527f656420696e207468652073616d6520626c6f636b20617320636c6f73654c6f7460208201527f7465727900000000000000000000000000000000000000000000000000000000604082015250565b7f496e76616c6964207469636b6574496400000000000000000000000000000000600082015250565b7f43616e6e6f742072657365742077697468203020737461727454696d6520616e60008201527f6420656e6454696d650000000000000000000000000000000000000000000000602082015250565b7f4f776e61626c653a206e6577206f776e657220697320746865207a65726f206160008201527f6464726573730000000000000000000000000000000000000000000000000000602082015250565b7f43616e6e6f742064726177206c6f747465727920616674657220656e6452657760008201527f61726454696d6500000000000000000000000000000000000000000000000000602082015250565b7f436f6e7472616374206e6f7420616c6c6f776564000000000000000000000000600082015250565b7f43616e2774206368616e67652072657761726473206e6f770000000000000000600082015250565b7f4c6f747465727920616c72656164792073746172746564000000000000000000600082015250565b7f43616e6e6f7420636c61696d207469636b65747320616674657220656e64526560008201527f7761726454696d65000000000000000000000000000000000000000000000000602082015250565b7f416464726573733a20696e73756666696369656e742062616c616e636520666f60008201527f722063616c6c0000000000000000000000000000000000000000000000000000602082015250565b7f43616e6e6f74207374617274207769746820737461727454696d6520696e207460008201527f6865207061737400000000000000000000000000000000000000000000000000602082015250565b7f4c6f7474657279206e6f7420636c61696d61626c650000000000000000000000600082015250565b7f72657665616c52616e646f6d6e6573732063616e6e6f742062652063616c6c6560008201527f6420696e207468652073616d6520626c6f636b2061732072657175657374526160208201527f6e646f6d6e657373000000000000000000000000000000000000000000000000604082015250565b7f4e6f7420656e6f7567682055534420746f20627579207469636b657400000000600082015250565b7f43616e6e6f74206275792030207469636b657473000000000000000000000000600082015250565b7f50726f787920636f6e7472616374206e6f7420616c6c6f776564000000000000600082015250565b7f4e6f207265776172640000000000000000000000000000000000000000000000600082015250565b7f4f776e61626c653a2063616c6c6572206973206e6f7420746865206f776e6572600082015250565b7f43616e6e6f7420627579207469636b65747320616674657220656e6454696d65600082015250565b7f4c6f7474657279206e6f74206f70656e00000000000000000000000000000000600082015250565b7f43616e6e6f7420636c61696d2030207469636b65747300000000000000000000600082015250565b7f43616e6e6f7420636c6f7365206c6f7474657279206265666f726520656e645460008201527f696d650000000000000000000000000000000000000000000000000000000000602082015250565b7f416464726573733a2063616c6c20746f206e6f6e2d636f6e7472616374000000600082015250565b7f43616e6e6f74207265736574206265666f726520656e6452657761726454696d60008201527f6500000000000000000000000000000000000000000000000000000000000000602082015250565b7f5361666545524332303a204552433230206f7065726174696f6e20646964206e60008201527f6f74207375636365656400000000000000000000000000000000000000000000602082015250565b7f5265656e7472616e637947756172643a207265656e7472616e742063616c6c00600082015250565b7f4c6f7474657279206e6f7420636c6f7365640000000000000000000000000000600082015250565b7f4e6f7420746865206f776e6572206f6620746865207469636b65740000000000600082015250565b6004811061522957615228614aa8565b5b50565b61523581614850565b811461524057600080fd5b50565b61524c81614862565b811461525757600080fd5b50565b615263816148a1565b811461526e57600080fd5b5056fea26469706673582212207da305e4dd50d96e20bbd331df1305d1cd409b3f9817060c6154fac0df69c28864736f6c63430008060033",
  "linkReferences": {},
  "deployedLinkReferences": {}
}